{
  "contractName": "Proofs",
  "abi": [
    {
      "constant": true,
      "inputs": [
        {
          "name": "",
          "type": "address"
        }
      ],
      "name": "proofsByCreator",
      "outputs": [
        {
          "name": "id",
          "type": "uint256"
        },
        {
          "name": "creator",
          "type": "address"
        },
        {
          "name": "title",
          "type": "string"
        },
        {
          "name": "description",
          "type": "string"
        },
        {
          "name": "image",
          "type": "string"
        }
      ],
      "payable": false,
      "stateMutability": "view",
      "type": "function"
    },
    {
      "constant": true,
      "inputs": [],
      "name": "owner",
      "outputs": [
        {
          "name": "",
          "type": "address"
        }
      ],
      "payable": false,
      "stateMutability": "view",
      "type": "function"
    },
    {
      "constant": true,
      "inputs": [
        {
          "name": "",
          "type": "uint256"
        }
      ],
      "name": "proofs",
      "outputs": [
        {
          "name": "id",
          "type": "uint256"
        },
        {
          "name": "creator",
          "type": "address"
        },
        {
          "name": "title",
          "type": "string"
        },
        {
          "name": "description",
          "type": "string"
        },
        {
          "name": "image",
          "type": "string"
        }
      ],
      "payable": false,
      "stateMutability": "view",
      "type": "function"
    },
    {
      "inputs": [],
      "payable": false,
      "stateMutability": "nonpayable",
      "type": "constructor"
    },
    {
      "anonymous": false,
      "inputs": [
        {
          "indexed": false,
          "name": "creator",
          "type": "address"
        }
      ],
      "name": "getProofsByCreator",
      "type": "event"
    },
    {
      "anonymous": false,
      "inputs": [
        {
          "indexed": false,
          "name": "id",
          "type": "uint256"
        }
      ],
      "name": "ProofCreated",
      "type": "event"
    },
    {
      "anonymous": false,
      "inputs": [
        {
          "indexed": false,
          "name": "id",
          "type": "uint256"
        }
      ],
      "name": "deleteProof",
      "type": "event"
    },
    {
      "constant": false,
      "inputs": [
        {
          "name": "title",
          "type": "string"
        },
        {
          "name": "description",
          "type": "string"
        },
        {
          "name": "image",
          "type": "string"
        },
        {
          "name": "tags",
          "type": "string[]"
        }
      ],
      "name": "createProof",
      "outputs": [
        {
          "components": [
            {
              "name": "id",
              "type": "uint256"
            },
            {
              "name": "creator",
              "type": "address"
            },
            {
              "name": "title",
              "type": "string"
            },
            {
              "name": "description",
              "type": "string"
            },
            {
              "name": "image",
              "type": "string"
            },
            {
              "name": "tags",
              "type": "string[]"
            }
          ],
          "name": "",
          "type": "tuple"
        }
      ],
      "payable": false,
      "stateMutability": "nonpayable",
      "type": "function"
    }
  ],
  "bytecode": "0x608060405234801561001057600080fd5b50336000806101000a81548173ffffffffffffffffffffffffffffffffffffffff021916908373ffffffffffffffffffffffffffffffffffffffff1602179055506000600181905550611283806100686000396000f300608060405260043610610062576000357c0100000000000000000000000000000000000000000000000000000000900463ffffffff1680631b898cb6146100675780634bba7c7a146100a85780638da5cb5b146100e55780639ddaf5aa14610110575b600080fd5b34801561007357600080fd5b5061008e60048036036100899190810190610d90565b610151565b60405161009f95949392919061105d565b60405180910390f35b3480156100b457600080fd5b506100cf60048036036100ca9190810190610db9565b61036f565b6040516100dc9190611020565b60405180910390f35b3480156100f157600080fd5b506100fa61083d565b6040516101079190611005565b60405180910390f35b34801561011c57600080fd5b5061013760048036036101329190810190610e7c565b610862565b60405161014895949392919061105d565b60405180910390f35b60036020528060005260406000206000915090508060000154908060010160009054906101000a900473ffffffffffffffffffffffffffffffffffffffff1690806002018054600181600116156101000203166002900480601f0160208091040260200160405190810160405280929190818152602001828054600181600116156101000203166002900480156102295780601f106101fe57610100808354040283529160200191610229565b820191906000526020600020905b81548152906001019060200180831161020c57829003601f168201915b505050505090806003018054600181600116156101000203166002900480601f0160208091040260200160405190810160405280929190818152602001828054600181600116156101000203166002900480156102c75780601f1061029c576101008083540402835291602001916102c7565b820191906000526020600020905b8154815290600101906020018083116102aa57829003601f168201915b505050505090806004018054600181600116156101000203166002900480601f0160208091040260200160405190810160405280929190818152602001828054600181600116156101000203166002900480156103655780601f1061033a57610100808354040283529160200191610365565b820191906000526020600020905b81548152906001019060200180831161034857829003601f168201915b5050505050905085565b610377610a80565b6001806000828254019250508190555060c06040519081016040528060015481526020013373ffffffffffffffffffffffffffffffffffffffff168152602001868152602001858152602001848152602001838152506002600060015481526020019081526020016000206000820151816000015560208201518160010160006101000a81548173ffffffffffffffffffffffffffffffffffffffff021916908373ffffffffffffffffffffffffffffffffffffffff160217905550604082015181600201908051906020019061044f929190610acd565b50606082015181600301908051906020019061046c929190610acd565b506080820151816004019080519060200190610489929190610acd565b5060a08201518160050190805190602001906104a6929190610b4d565b509050507f9623c497fe143bfef2bbed25e1d16c6dc36b829cb9d2ab1c25c90824dda74d6e6001546040516104db9190611042565b60405180910390a160026000600154815260200190815260200160002060c06040519081016040529081600082015481526020016001820160009054906101000a900473ffffffffffffffffffffffffffffffffffffffff1673ffffffffffffffffffffffffffffffffffffffff1673ffffffffffffffffffffffffffffffffffffffff168152602001600282018054600181600116156101000203166002900480601f0160208091040260200160405190810160405280929190818152602001828054600181600116156101000203166002900480156105fd5780601f106105d2576101008083540402835291602001916105fd565b820191906000526020600020905b8154815290600101906020018083116105e057829003601f168201915b50505050508152602001600382018054600181600116156101000203166002900480601f01602080910402602001604051908101604052809291908181526020018280546001816001161561010002031660029004801561069f5780601f106106745761010080835404028352916020019161069f565b820191906000526020600020905b81548152906001019060200180831161068257829003601f168201915b50505050508152602001600482018054600181600116156101000203166002900480601f0160208091040260200160405190810160405280929190818152602001828054600181600116156101000203166002900480156107415780601f1061071657610100808354040283529160200191610741565b820191906000526020600020905b81548152906001019060200180831161072457829003601f168201915b5050505050815260200160058201805480602002602001604051908101604052809291908181526020016000905b8282101561082b578382906000526020600020018054600181600116156101000203166002900480601f0160208091040260200160405190810160405280929190818152602001828054600181600116156101000203166002900480156108175780601f106107ec57610100808354040283529160200191610817565b820191906000526020600020905b8154815290600101906020018083116107fa57829003601f168201915b50505050508152602001906001019061076f565b50505050815250509050949350505050565b6000809054906101000a900473ffffffffffffffffffffffffffffffffffffffff1681565b60026020528060005260406000206000915090508060000154908060010160009054906101000a900473ffffffffffffffffffffffffffffffffffffffff1690806002018054600181600116156101000203166002900480601f01602080910402602001604051908101604052809291908181526020018280546001816001161561010002031660029004801561093a5780601f1061090f5761010080835404028352916020019161093a565b820191906000526020600020905b81548152906001019060200180831161091d57829003601f168201915b505050505090806003018054600181600116156101000203166002900480601f0160208091040260200160405190810160405280929190818152602001828054600181600116156101000203166002900480156109d85780601f106109ad576101008083540402835291602001916109d8565b820191906000526020600020905b8154815290600101906020018083116109bb57829003601f168201915b505050505090806004018054600181600116156101000203166002900480601f016020809104026020016040519081016040528092919081815260200182805460018160011615610100020316600290048015610a765780601f10610a4b57610100808354040283529160200191610a76565b820191906000526020600020905b815481529060010190602001808311610a5957829003601f168201915b5050505050905085565b60c06040519081016040528060008152602001600073ffffffffffffffffffffffffffffffffffffffff168152602001606081526020016060815260200160608152602001606081525090565b828054600181600116156101000203166002900490600052602060002090601f016020900481019282601f10610b0e57805160ff1916838001178555610b3c565b82800160010185558215610b3c579182015b82811115610b3b578251825591602001919060010190610b20565b5b509050610b499190610bad565b5090565b828054828255906000526020600020908101928215610b9c579160200282015b82811115610b9b578251829080519060200190610b8b929190610acd565b5091602001919060010190610b6d565b5b509050610ba99190610bd2565b5090565b610bcf91905b80821115610bcb576000816000905550600101610bb3565b5090565b90565b610bfb91905b80821115610bf75760008181610bee9190610bfe565b50600101610bd8565b5090565b90565b50805460018160011615610100020316600290046000825580601f10610c245750610c43565b601f016020900490600052602060002090810190610c429190610bad565b5b50565b6000610c5282356111cc565b905092915050565b600082601f8301121515610c6d57600080fd5b8135610c80610c7b826110f2565b6110c5565b9150818183526020840193506020810190508360005b83811015610cc65781358601610cac8882610cd0565b845260208401935060208301925050600181019050610c96565b5050505092915050565b600082601f8301121515610ce357600080fd5b8135610cf6610cf18261111a565b6110c5565b91508082526020830160208301858383011115610d1257600080fd5b610d1d8382846111f6565b50505092915050565b600082601f8301121515610d3957600080fd5b8135610d4c610d4782611146565b6110c5565b91508082526020830160208301858383011115610d6857600080fd5b610d738382846111f6565b50505092915050565b6000610d8882356111ec565b905092915050565b600060208284031215610da257600080fd5b6000610db084828501610c46565b91505092915050565b60008060008060808587031215610dcf57600080fd5b600085013567ffffffffffffffff811115610de957600080fd5b610df587828801610d26565b945050602085013567ffffffffffffffff811115610e1257600080fd5b610e1e87828801610d26565b935050604085013567ffffffffffffffff811115610e3b57600080fd5b610e4787828801610d26565b925050606085013567ffffffffffffffff811115610e6457600080fd5b610e7087828801610c5a565b91505092959194509250565b600060208284031215610e8e57600080fd5b6000610e9c84828501610d7c565b91505092915050565b610eae816111a2565b82525050565b6000610ebf8261117f565b80845260208401935083602082028501610ed885611172565b60005b84811015610f11578383038852610ef3838351610f22565b9250610efe82611195565b9150602088019750600181019050610edb565b508196508694505050505092915050565b6000610f2d8261118a565b808452610f41816020860160208601611205565b610f4a81611238565b602085010191505092915050565b600060c083016000830151610f706000860182610ff6565b506020830151610f836020860182610ea5565b5060408301518482036040860152610f9b8282610f22565b91505060608301518482036060860152610fb58282610f22565b91505060808301518482036080860152610fcf8282610f22565b91505060a083015184820360a0860152610fe98282610eb4565b9150508091505092915050565b610fff816111c2565b82525050565b600060208201905061101a6000830184610ea5565b92915050565b6000602082019050818103600083015261103a8184610f58565b905092915050565b60006020820190506110576000830184610ff6565b92915050565b600060a0820190506110726000830188610ff6565b61107f6020830187610ea5565b81810360408301526110918186610f22565b905081810360608301526110a58185610f22565b905081810360808301526110b98184610f22565b90509695505050505050565b6000604051905081810181811067ffffffffffffffff821117156110e857600080fd5b8060405250919050565b600067ffffffffffffffff82111561110957600080fd5b602082029050602081019050919050565b600067ffffffffffffffff82111561113157600080fd5b601f19601f8301169050602081019050919050565b600067ffffffffffffffff82111561115d57600080fd5b601f19601f8301169050602081019050919050565b6000602082019050919050565b600081519050919050565b600081519050919050565b6000602082019050919050565b600073ffffffffffffffffffffffffffffffffffffffff82169050919050565b6000819050919050565b600073ffffffffffffffffffffffffffffffffffffffff82169050919050565b6000819050919050565b82818337600083830152505050565b60005b83811015611223578082015181840152602081019050611208565b83811115611232576000848401525b50505050565b6000601f19601f83011690509190505600a265627a7a72305820f330c6104729b91d54e0b20cd49192300493108e200a438d16e39719faf86cee6c6578706572696d656e74616cf50037",
  "source": "pragma solidity ^0.4.18;\npragma experimental ABIEncoderV2;\n\ncontract Proofs {\n\n    address public owner; \n\n    uint proofCount; \n\n    mapping(uint => Proof) public proofs; \n    mapping(address => Proof) public proofsByCreator; \n\n    //TODO; IPFS thing for pics and maybe vids\n    struct Proof {\n        uint id; \n        address creator; \n        string title; \n        string description;\n        string image;\n        string[] tags; \n    }\n\n    //events\n    event getProofsByCreator(address creator);\n    event ProofCreated(uint id);\n    event deleteProof(uint id);\n\n    //modifiers \n    //modifier isCreator()\n\n    constructor() public {\n        owner = msg.sender; \n        proofCount = 0; \n    }\n\n    // Clarification -> do we get all of OUR proofs at the start of the app? or load the json dummy data...\n\n    // function getProofs(address creator) returns (Proof[]) {\n    //     //how to return an array in solidity? apparently cannot do...\n    //     return proofsByCreator[msg.sender];\n    // }\n\n    function createProof(string title, string description, string image, string[] tags) public returns (Proof) {\n        proofCount += 1; \n        proofs[proofCount] = Proof({id: proofCount, creator: msg.sender, title: title, description: description, image: image, tags: tags });\n        emit ProofCreated(proofCount);\n        return proofs[proofCount];\n    }\n\n    // function deleteProof() isCreator() public  {\n    // }\n\n    //function edit proof\n\n}",
  "sourcePath": "/Users/mitchellrivet/ethereum/proof/contracts/Proofs.sol",
  "compiler": {
    "name": "solc",
    "version": "0.4.24+commit.e67f0147.Emscripten.clang"
  },
  "schemaVersion": "2.0.1",
  "updatedAt": "2018-08-25T23:23:42.002Z"
}