{
  "contractName": "Proofs",
  "abi": [
    {
      "constant": true,
      "inputs": [],
      "name": "owner",
      "outputs": [
        {
          "name": "",
          "type": "address"
        }
      ],
      "payable": false,
      "stateMutability": "view",
      "type": "function"
    },
    {
      "constant": true,
      "inputs": [
        {
          "name": "",
          "type": "uint256"
        }
      ],
      "name": "proofs",
      "outputs": [
        {
          "name": "id",
          "type": "uint256"
        },
        {
          "name": "creator",
          "type": "address"
        },
        {
          "name": "title",
          "type": "string"
        },
        {
          "name": "description",
          "type": "string"
        },
        {
          "name": "image",
          "type": "string"
        }
      ],
      "payable": false,
      "stateMutability": "view",
      "type": "function"
    },
    {
      "constant": true,
      "inputs": [
        {
          "name": "",
          "type": "uint256"
        }
      ],
      "name": "proofIds",
      "outputs": [
        {
          "name": "",
          "type": "uint256"
        }
      ],
      "payable": false,
      "stateMutability": "view",
      "type": "function"
    },
    {
      "constant": true,
      "inputs": [],
      "name": "lastProofId",
      "outputs": [
        {
          "name": "",
          "type": "uint256"
        }
      ],
      "payable": false,
      "stateMutability": "view",
      "type": "function"
    },
    {
      "inputs": [],
      "payable": false,
      "stateMutability": "nonpayable",
      "type": "constructor"
    },
    {
      "anonymous": false,
      "inputs": [
        {
          "indexed": false,
          "name": "creator",
          "type": "address"
        }
      ],
      "name": "getProofsByCreator",
      "type": "event"
    },
    {
      "anonymous": false,
      "inputs": [
        {
          "indexed": false,
          "name": "id",
          "type": "uint256"
        }
      ],
      "name": "ProofCreated",
      "type": "event"
    },
    {
      "anonymous": false,
      "inputs": [
        {
          "indexed": false,
          "name": "id",
          "type": "uint256"
        }
      ],
      "name": "deleteProof",
      "type": "event"
    },
    {
      "constant": true,
      "inputs": [
        {
          "name": "id",
          "type": "uint256"
        }
      ],
      "name": "getProof",
      "outputs": [
        {
          "name": "",
          "type": "uint256"
        },
        {
          "name": "",
          "type": "string"
        },
        {
          "name": "",
          "type": "string"
        },
        {
          "name": "",
          "type": "string"
        }
      ],
      "payable": false,
      "stateMutability": "view",
      "type": "function"
    },
    {
      "constant": true,
      "inputs": [],
      "name": "getProofIds",
      "outputs": [
        {
          "name": "",
          "type": "uint256"
        }
      ],
      "payable": false,
      "stateMutability": "view",
      "type": "function"
    },
    {
      "constant": false,
      "inputs": [
        {
          "name": "title",
          "type": "string"
        },
        {
          "name": "description",
          "type": "string"
        },
        {
          "name": "image",
          "type": "string"
        }
      ],
      "name": "createProof",
      "outputs": [],
      "payable": false,
      "stateMutability": "nonpayable",
      "type": "function"
    }
  ],
  "bytecode": "0x608060405234801561001057600080fd5b50336000806101000a81548173ffffffffffffffffffffffffffffffffffffffff021916908373ffffffffffffffffffffffffffffffffffffffff160217905550600380549050600181905550610d238061006c6000396000f300608060405260043610610083576000357c0100000000000000000000000000000000000000000000000000000000900463ffffffff16806311149ada1461008857806328ffc4e51461020d5780638da5cb5b146103025780639ddaf5aa14610359578063c3239a6214610511578063c7385f2e1461053c578063d1c297431461057d575b600080fd5b34801561009457600080fd5b506100b3600480360381019080803590602001909291905050506105a8565b60405180858152602001806020018060200180602001848103845287818151815260200191508051906020019080838360005b838110156101015780820151818401526020810190506100e6565b50505050905090810190601f16801561012e5780820380516001836020036101000a031916815260200191505b50848103835286818151815260200191508051906020019080838360005b8381101561016757808201518184015260208101905061014c565b50505050905090810190601f1680156101945780820380516001836020036101000a031916815260200191505b50848103825285818151815260200191508051906020019080838360005b838110156101cd5780820151818401526020810190506101b2565b50505050905090810190601f1680156101fa5780820380516001836020036101000a031916815260200191505b5097505050505050505060405180910390f35b34801561021957600080fd5b50610300600480360381019080803590602001908201803590602001908080601f0160208091040260200160405190810160405280939291908181526020018383808284378201915050505050509192919290803590602001908201803590602001908080601f0160208091040260200160405190810160405280939291908181526020018383808284378201915050505050509192919290803590602001908201803590602001908080601f0160208091040260200160405190810160405280939291908181526020018383808284378201915050505050509192919290505050610813565b005b34801561030e57600080fd5b50610317610987565b604051808273ffffffffffffffffffffffffffffffffffffffff1673ffffffffffffffffffffffffffffffffffffffff16815260200191505060405180910390f35b34801561036557600080fd5b50610384600480360381019080803590602001909291905050506109ac565b604051808681526020018573ffffffffffffffffffffffffffffffffffffffff1673ffffffffffffffffffffffffffffffffffffffff168152602001806020018060200180602001848103845287818151815260200191508051906020019080838360005b838110156104045780820151818401526020810190506103e9565b50505050905090810190601f1680156104315780820380516001836020036101000a031916815260200191505b50848103835286818151815260200191508051906020019080838360005b8381101561046a57808201518184015260208101905061044f565b50505050905090810190601f1680156104975780820380516001836020036101000a031916815260200191505b50848103825285818151815260200191508051906020019080838360005b838110156104d05780820151818401526020810190506104b5565b50505050905090810190601f1680156104fd5780820380516001836020036101000a031916815260200191505b509850505050505050505060405180910390f35b34801561051d57600080fd5b50610526610bd9565b6040518082815260200191505060405180910390f35b34801561054857600080fd5b5061056760048036038101908080359060200190929190505050610be3565b6040518082815260200191505060405180910390f35b34801561058957600080fd5b50610592610c06565b6040518082815260200191505060405180910390f35b600060608060606003858154811015156105be57fe5b9060005260206000209060050201600001546003868154811015156105df57fe5b90600052602060002090600502016002016003878154811015156105ff57fe5b906000526020600020906005020160030160038881548110151561061f57fe5b9060005260206000209060050201600401828054600181600116156101000203166002900480601f0160208091040260200160405190810160405280929190818152602001828054600181600116156101000203166002900480156106c55780601f1061069a576101008083540402835291602001916106c5565b820191906000526020600020905b8154815290600101906020018083116106a857829003601f168201915b50505050509250818054600181600116156101000203166002900480601f0160208091040260200160405190810160405280929190818152602001828054600181600116156101000203166002900480156107615780601f1061073657610100808354040283529160200191610761565b820191906000526020600020905b81548152906001019060200180831161074457829003601f168201915b50505050509150808054600181600116156101000203166002900480601f0160208091040260200160405190810160405280929190818152602001828054600181600116156101000203166002900480156107fd5780601f106107d2576101008083540402835291602001916107fd565b820191906000526020600020905b8154815290600101906020018083116107e057829003601f168201915b5050505050905093509350935093509193509193565b61081b610c0c565b60a06040519081016040528060015481526020013373ffffffffffffffffffffffffffffffffffffffff168152602001858152602001848152602001838152509050600381908060018154018082558091505090600182039060005260206000209060050201600090919290919091506000820151816000015560208201518160010160006101000a81548173ffffffffffffffffffffffffffffffffffffffff021916908373ffffffffffffffffffffffffffffffffffffffff16021790555060408201518160020190805190602001906108f8929190610c52565b506060820151816003019080519060200190610915929190610c52565b506080820151816004019080519060200190610932929190610c52565b505050506001600081548092919060010191905055507f9623c497fe143bfef2bbed25e1d16c6dc36b829cb9d2ab1c25c90824dda74d6e6001546040518082815260200191505060405180910390a150505050565b6000809054906101000a900473ffffffffffffffffffffffffffffffffffffffff1681565b6003818154811015156109bb57fe5b90600052602060002090600502016000915090508060000154908060010160009054906101000a900473ffffffffffffffffffffffffffffffffffffffff1690806002018054600181600116156101000203166002900480601f016020809104026020016040519081016040528092919081815260200182805460018160011615610100020316600290048015610a935780601f10610a6857610100808354040283529160200191610a93565b820191906000526020600020905b815481529060010190602001808311610a7657829003601f168201915b505050505090806003018054600181600116156101000203166002900480601f016020809104026020016040519081016040528092919081815260200182805460018160011615610100020316600290048015610b315780601f10610b0657610100808354040283529160200191610b31565b820191906000526020600020905b815481529060010190602001808311610b1457829003601f168201915b505050505090806004018054600181600116156101000203166002900480601f016020809104026020016040519081016040528092919081815260200182805460018160011615610100020316600290048015610bcf5780601f10610ba457610100808354040283529160200191610bcf565b820191906000526020600020905b815481529060010190602001808311610bb257829003601f168201915b5050505050905085565b6000600154905090565b600281815481101515610bf257fe5b906000526020600020016000915090505481565b60015481565b60a06040519081016040528060008152602001600073ffffffffffffffffffffffffffffffffffffffff1681526020016060815260200160608152602001606081525090565b828054600181600116156101000203166002900490600052602060002090601f016020900481019282601f10610c9357805160ff1916838001178555610cc1565b82800160010185558215610cc1579182015b82811115610cc0578251825591602001919060010190610ca5565b5b509050610cce9190610cd2565b5090565b610cf491905b80821115610cf0576000816000905550600101610cd8565b5090565b905600a165627a7a7230582093126671ba2842df4776d9b6ec3df51191a6409d18b328d6a38068db4dccccd10029",
  "source": "pragma solidity ^0.4.24;\n\ncontract Proofs {\n\n    address public owner; \n\n    uint public lastProofId; \n    uint[] public proofIds; \n\n    //mapping(uint => Proof) public proofs; \n    Proof[] public proofs; \n\n    //TODO; IPFS thing for pics and maybe vids\n    struct Proof {\n        uint id; \n        address creator; \n        string title; \n        string description;\n        string image;\n    }\n\n    //events\n    event getProofsByCreator(address creator);\n    event ProofCreated(uint id);\n    event deleteProof(uint id);\n\n    //modifiers \n    //modifier isCreator()\n\n    constructor() public {\n        owner = msg.sender; \n        lastProofId = proofs.length; \n    }\n    // Clarification -> do we get all of OUR proofs at the start of the app? or load the json dummy data...\n    function getProof(uint id) public constant returns (uint, string, string, string) {\n        return (proofs[id].id, proofs[id].title, proofs[id].description, proofs[id].image);\n    }\n\n    //issues when returning uint[]... docs say you can w/ web3?        \n    function getProofIds() public constant returns (uint) {\n        return lastProofId;\n    }\n\n    \n\n    function createProof(string title, string description, string image) public {\n        Proof memory newProof = Proof({id: lastProofId, creator: msg.sender, title: title, description: description, image: image});\n        proofs.push(newProof);\n        // proofIds.push(lastProofId);\n        lastProofId++;\n        emit ProofCreated(lastProofId);\n    }\n\n}",
  "sourcePath": "/Users/mitchellrivet/ethereum/proof/contracts/Proofs.sol",
  "compiler": {
    "name": "solc",
    "version": "0.4.24+commit.e67f0147.Emscripten.clang"
  },
  "schemaVersion": "2.0.1",
  "updatedAt": "2018-08-27T19:11:58.783Z"
}