{
  "contractName": "Proofs",
  "abi": [
    {
      "constant": true,
      "inputs": [],
      "name": "owner",
      "outputs": [
        {
          "name": "",
          "type": "address"
        }
      ],
      "payable": false,
      "stateMutability": "view",
      "type": "function"
    },
    {
      "constant": true,
      "inputs": [
        {
          "name": "",
          "type": "uint256"
        }
      ],
      "name": "proofs",
      "outputs": [
        {
          "name": "id",
          "type": "uint256"
        },
        {
          "name": "creator",
          "type": "address"
        },
        {
          "name": "title",
          "type": "string"
        },
        {
          "name": "description",
          "type": "string"
        },
        {
          "name": "image",
          "type": "string"
        }
      ],
      "payable": false,
      "stateMutability": "view",
      "type": "function"
    },
    {
      "inputs": [],
      "payable": false,
      "stateMutability": "nonpayable",
      "type": "constructor"
    },
    {
      "anonymous": false,
      "inputs": [
        {
          "indexed": false,
          "name": "creator",
          "type": "address"
        }
      ],
      "name": "getProofsByCreator",
      "type": "event"
    },
    {
      "anonymous": false,
      "inputs": [
        {
          "indexed": false,
          "name": "id",
          "type": "uint256"
        }
      ],
      "name": "ProofCreated",
      "type": "event"
    },
    {
      "anonymous": false,
      "inputs": [
        {
          "indexed": false,
          "name": "id",
          "type": "uint256"
        }
      ],
      "name": "deleteProof",
      "type": "event"
    },
    {
      "constant": true,
      "inputs": [
        {
          "name": "id",
          "type": "uint256"
        }
      ],
      "name": "getProof",
      "outputs": [
        {
          "name": "",
          "type": "string"
        },
        {
          "name": "",
          "type": "string"
        },
        {
          "name": "",
          "type": "string"
        }
      ],
      "payable": false,
      "stateMutability": "view",
      "type": "function"
    },
    {
      "constant": false,
      "inputs": [
        {
          "name": "title",
          "type": "string"
        },
        {
          "name": "description",
          "type": "string"
        },
        {
          "name": "image",
          "type": "string"
        }
      ],
      "name": "createProof",
      "outputs": [],
      "payable": false,
      "stateMutability": "nonpayable",
      "type": "function"
    },
    {
      "constant": true,
      "inputs": [],
      "name": "getProofIds",
      "outputs": [
        {
          "name": "",
          "type": "uint256[]"
        }
      ],
      "payable": false,
      "stateMutability": "view",
      "type": "function"
    }
  ],
  "bytecode": "0x608060405234801561001057600080fd5b506000600181905550610c72806100286000396000f30060806040526004361061006d576000357c0100000000000000000000000000000000000000000000000000000000900463ffffffff16806311149ada1461007257806328ffc4e5146101f05780638da5cb5b146102e55780639ddaf5aa1461033c578063c3239a62146104f4575b600080fd5b34801561007e57600080fd5b5061009d60048036038101908080359060200190929190505050610560565b60405180806020018060200180602001848103845287818151815260200191508051906020019080838360005b838110156100e55780820151818401526020810190506100ca565b50505050905090810190601f1680156101125780820380516001836020036101000a031916815260200191505b50848103835286818151815260200191508051906020019080838360005b8381101561014b578082015181840152602081019050610130565b50505050905090810190601f1680156101785780820380516001836020036101000a031916815260200191505b50848103825285818151815260200191508051906020019080838360005b838110156101b1578082015181840152602081019050610196565b50505050905090810190601f1680156101de5780820380516001836020036101000a031916815260200191505b50965050505050505060405180910390f35b3480156101fc57600080fd5b506102e3600480360381019080803590602001908201803590602001908080601f0160208091040260200160405190810160405280939291908181526020018383808284378201915050505050509192919290803590602001908201803590602001908080601f0160208091040260200160405190810160405280939291908181526020018383808284378201915050505050509192919290803590602001908201803590602001908080601f0160208091040260200160405190810160405280939291908181526020018383808284378201915050505050509192919290505050610788565b005b3480156102f157600080fd5b506102fa610906565b604051808273ffffffffffffffffffffffffffffffffffffffff1673ffffffffffffffffffffffffffffffffffffffff16815260200191505060405180910390f35b34801561034857600080fd5b506103676004803603810190808035906020019092919050505061092b565b604051808681526020018573ffffffffffffffffffffffffffffffffffffffff1673ffffffffffffffffffffffffffffffffffffffff168152602001806020018060200180602001848103845287818151815260200191508051906020019080838360005b838110156103e75780820151818401526020810190506103cc565b50505050905090810190601f1680156104145780820380516001836020036101000a031916815260200191505b50848103835286818151815260200191508051906020019080838360005b8381101561044d578082015181840152602081019050610432565b50505050905090810190601f16801561047a5780820380516001836020036101000a031916815260200191505b50848103825285818151815260200191508051906020019080838360005b838110156104b3578082015181840152602081019050610498565b50505050905090810190601f1680156104e05780820380516001836020036101000a031916815260200191505b509850505050505050505060405180910390f35b34801561050057600080fd5b50610509610b49565b6040518080602001828103825283818151815260200191508051906020019060200280838360005b8381101561054c578082015181840152602081019050610531565b505050509050019250505060405180910390f35b6060806060600260008581526020019081526020016000206002016002600086815260200190815260200160002060030160026000878152602001908152602001600020600401828054600181600116156101000203166002900480601f01602080910402602001604051908101604052809291908181526020018280546001816001161561010002031660029004801561063c5780601f106106115761010080835404028352916020019161063c565b820191906000526020600020905b81548152906001019060200180831161061f57829003601f168201915b50505050509250818054600181600116156101000203166002900480601f0160208091040260200160405190810160405280929190818152602001828054600181600116156101000203166002900480156106d85780601f106106ad576101008083540402835291602001916106d8565b820191906000526020600020905b8154815290600101906020018083116106bb57829003601f168201915b50505050509150808054600181600116156101000203166002900480601f0160208091040260200160405190810160405280929190818152602001828054600181600116156101000203166002900480156107745780601f1061074957610100808354040283529160200191610774565b820191906000526020600020905b81548152906001019060200180831161075757829003601f168201915b505050505090509250925092509193909250565b60a06040519081016040528060015481526020013373ffffffffffffffffffffffffffffffffffffffff168152602001848152602001838152602001828152506002600060015481526020019081526020016000206000820151816000015560208201518160010160006101000a81548173ffffffffffffffffffffffffffffffffffffffff021916908373ffffffffffffffffffffffffffffffffffffffff160217905550604082015181600201908051906020019061084a929190610ba1565b506060820151816003019080519060200190610867929190610ba1565b506080820151816004019080519060200190610884929190610ba1565b50905050600360015490806001815401808255809150509060018203906000526020600020016000909192909190915055507f9623c497fe143bfef2bbed25e1d16c6dc36b829cb9d2ab1c25c90824dda74d6e6001546040518082815260200191505060405180910390a1600160008154809291906001019190505550505050565b6000809054906101000a900473ffffffffffffffffffffffffffffffffffffffff1681565b60026020528060005260406000206000915090508060000154908060010160009054906101000a900473ffffffffffffffffffffffffffffffffffffffff1690806002018054600181600116156101000203166002900480601f016020809104026020016040519081016040528092919081815260200182805460018160011615610100020316600290048015610a035780601f106109d857610100808354040283529160200191610a03565b820191906000526020600020905b8154815290600101906020018083116109e657829003601f168201915b505050505090806003018054600181600116156101000203166002900480601f016020809104026020016040519081016040528092919081815260200182805460018160011615610100020316600290048015610aa15780601f10610a7657610100808354040283529160200191610aa1565b820191906000526020600020905b815481529060010190602001808311610a8457829003601f168201915b505050505090806004018054600181600116156101000203166002900480601f016020809104026020016040519081016040528092919081815260200182805460018160011615610100020316600290048015610b3f5780601f10610b1457610100808354040283529160200191610b3f565b820191906000526020600020905b815481529060010190602001808311610b2257829003601f168201915b5050505050905085565b60606003805480602002602001604051908101604052809291908181526020018280548015610b9757602002820191906000526020600020905b815481526020019060010190808311610b83575b5050505050905090565b828054600181600116156101000203166002900490600052602060002090601f016020900481019282601f10610be257805160ff1916838001178555610c10565b82800160010185558215610c10579182015b82811115610c0f578251825591602001919060010190610bf4565b5b509050610c1d9190610c21565b5090565b610c4391905b80821115610c3f576000816000905550600101610c27565b5090565b905600a165627a7a72305820f45abd8812363611bbe3e35796060d9ba7bd359b2f7c9c2320148ca11c68591a0029",
  "source": "pragma solidity ^0.4.18;\n\ncontract Proofs {\n\n    address public owner; \n\n    uint lastProofId; \n\n    mapping(uint => Proof) public proofs; \n    uint[] proofIds; \n\n    //TODO; IPFS thing for pics and maybe vids\n    struct Proof {\n        uint id; \n        address creator; \n        string title; \n        string description;\n        string image;\n    }\n\n    //events\n    event getProofsByCreator(address creator);\n    event ProofCreated(uint id);\n    event deleteProof(uint id);\n\n    //modifiers \n    //modifier isCreator()\n\n    constructor() public {\n        //owner = msg.sender; \n        lastProofId = 0; \n    }\n    // Clarification -> do we get all of OUR proofs at the start of the app? or load the json dummy data...\n    function getProof(uint id) public constant returns (string, string, string) {\n        return (proofs[id].title, proofs[id].description, proofs[id].image);\n    }\n\n    function createProof(string title, string description, string image) public  {\n        proofs[lastProofId] = Proof({id: lastProofId, creator: msg.sender, title: title, description: description, image: image});\n        proofIds.push(lastProofId);\n        emit ProofCreated(lastProofId);\n        lastProofId++; \n    }\n        \n    function getProofIds() public constant returns (uint[]){\n        return proofIds;\n    }\n            \n    // function getMyProofs() public view returns(uint[]) {\n    //     for (uint i = 0; i < proofs.length; i++) {\n    //         if (msg.sender == proofs[i].owner) {\n    //             myProofs.push(proofs[i].id);\n    //         }\n    //     }\n        \n    //     return myProofs;\n    // }\n\n}",
  "sourcePath": "/Users/mitchellrivet/ethereum/proof/contracts/Proofs.sol",
  "compiler": {
    "name": "solc",
    "version": "0.4.24+commit.e67f0147.Emscripten.clang"
  },
  "schemaVersion": "2.0.1",
  "updatedAt": "2018-08-26T23:38:54.320Z"
}